{
  "_format": "hh-sol-artifact-1",
  "contractName": "Bridge",
  "sourceName": "contracts/NFTContract.sol",
  "abi": [
    {
      "inputs": [
        {
          "internalType": "contract IConnext",
          "name": "_connext",
          "type": "address"
        }
      ],
      "stateMutability": "nonpayable",
      "type": "constructor"
    },
    {
      "inputs": [],
      "name": "connext",
      "outputs": [
        {
          "internalType": "contract IConnext",
          "name": "",
          "type": "address"
        }
      ],
      "stateMutability": "view",
      "type": "function"
    },
    {
      "inputs": [
        {
          "internalType": "address",
          "name": "recipient",
          "type": "address"
        },
        {
          "internalType": "uint32",
          "name": "destinationDomain",
          "type": "uint32"
        },
        {
          "internalType": "address",
          "name": "tokenAddress",
          "type": "address"
        },
        {
          "internalType": "uint256",
          "name": "amount",
          "type": "uint256"
        },
        {
          "internalType": "uint256",
          "name": "slippage",
          "type": "uint256"
        },
        {
          "internalType": "uint256",
          "name": "relayerFee",
          "type": "uint256"
        }
      ],
      "name": "xTransfer",
      "outputs": [],
      "stateMutability": "payable",
      "type": "function"
    }
  ],
  "bytecode": "0x60a060405234801561001057600080fd5b5060405161095e38038061095e833981810160405281019061003291906100e1565b8073ffffffffffffffffffffffffffffffffffffffff1660808173ffffffffffffffffffffffffffffffffffffffff16815250505061010e565b600080fd5b600073ffffffffffffffffffffffffffffffffffffffff82169050919050565b600061009c82610071565b9050919050565b60006100ae82610091565b9050919050565b6100be816100a3565b81146100c957600080fd5b50565b6000815190506100db816100b5565b92915050565b6000602082840312156100f7576100f661006c565b5b6000610105848285016100cc565b91505092915050565b608051610827610137600039600081816101d70152818161025a015261030b01526108276000f3fe6080604052600436106100295760003560e01c80638ee63af81461002e578063de4b05481461004a575b600080fd5b61004860048036038101906100439190610402565b610075565b005b34801561005657600080fd5b5061005f610309565b60405161006c91906104ee565b60405180910390f35b6000849050838173ffffffffffffffffffffffffffffffffffffffff1663dd62ed3e33306040518363ffffffff1660e01b81526004016100b6929190610518565b602060405180830381865afa1580156100d3573d6000803e3d6000fd5b505050506040513d601f19601f820116820180604052508101906100f79190610556565b1015610138576040517f08c379a000000000000000000000000000000000000000000000000000000000815260040161012f906105e0565b60405180910390fd5b8073ffffffffffffffffffffffffffffffffffffffff166323b872dd3330876040518463ffffffff1660e01b81526004016101759392919061060f565b6020604051808303816000875af1158015610194573d6000803e3d6000fd5b505050506040513d601f19601f820116820180604052508101906101b8919061067e565b508073ffffffffffffffffffffffffffffffffffffffff1663095ea7b37f0000000000000000000000000000000000000000000000000000000000000000866040518363ffffffff1660e01b81526004016102149291906106ab565b6020604051808303816000875af1158015610233573d6000803e3d6000fd5b505050506040513d601f19601f82011682018060405250810190610257919061067e565b507f000000000000000000000000000000000000000000000000000000000000000073ffffffffffffffffffffffffffffffffffffffff16638aac16ba83888a89338a8a6040518863ffffffff1660e01b81526004016102bc9695949392919061071a565b60206040518083038185885af11580156102da573d6000803e3d6000fd5b50505050506040513d601f19601f820116820180604052508101906102ff91906107c4565b5050505050505050565b7f000000000000000000000000000000000000000000000000000000000000000081565b600080fd5b600073ffffffffffffffffffffffffffffffffffffffff82169050919050565b600061035d82610332565b9050919050565b61036d81610352565b811461037857600080fd5b50565b60008135905061038a81610364565b92915050565b600063ffffffff82169050919050565b6103a981610390565b81146103b457600080fd5b50565b6000813590506103c6816103a0565b92915050565b6000819050919050565b6103df816103cc565b81146103ea57600080fd5b50565b6000813590506103fc816103d6565b92915050565b60008060008060008060c0878903121561041f5761041e61032d565b5b600061042d89828a0161037b565b965050602061043e89828a016103b7565b955050604061044f89828a0161037b565b945050606061046089828a016103ed565b935050608061047189828a016103ed565b92505060a061048289828a016103ed565b9150509295509295509295565b6000819050919050565b60006104b46104af6104aa84610332565b61048f565b610332565b9050919050565b60006104c682610499565b9050919050565b60006104d8826104bb565b9050919050565b6104e8816104cd565b82525050565b600060208201905061050360008301846104df565b92915050565b61051281610352565b82525050565b600060408201905061052d6000830185610509565b61053a6020830184610509565b9392505050565b600081519050610550816103d6565b92915050565b60006020828403121561056c5761056b61032d565b5b600061057a84828501610541565b91505092915050565b600082825260208201905092915050565b7f55736572206d75737420617070726f766520616d6f756e740000000000000000600082015250565b60006105ca601883610583565b91506105d582610594565b602082019050919050565b600060208201905081810360008301526105f9816105bd565b9050919050565b610609816103cc565b82525050565b60006060820190506106246000830186610509565b6106316020830185610509565b61063e6040830184610600565b949350505050565b60008115159050919050565b61065b81610646565b811461066657600080fd5b50565b60008151905061067881610652565b92915050565b6000602082840312156106945761069361032d565b5b60006106a284828501610669565b91505092915050565b60006040820190506106c06000830185610509565b6106cd6020830184610600565b9392505050565b6106dd81610390565b82525050565b600082825260208201905092915050565b50565b60006107046000836106e3565b915061070f826106f4565b600082019050919050565b600060e08201905061072f60008301896106d4565b61073c6020830188610509565b6107496040830187610509565b6107566060830186610509565b6107636080830185610600565b61077060a0830184610600565b81810360c0830152610781816106f7565b9050979650505050505050565b6000819050919050565b6107a18161078e565b81146107ac57600080fd5b50565b6000815190506107be81610798565b92915050565b6000602082840312156107da576107d961032d565b5b60006107e8848285016107af565b9150509291505056fea2646970667358221220c08567b03961ae63736502606a811ee90318979d178e161ae14b620f8a2dabfe64736f6c63430008110033",
  "linkReferences": {},
  "deployedLinkReferences": {}
}