{
  "_format": "hh-sol-artifact-1",
  "contractName": "NFTContract",
  "sourceName": "contracts/NFTContract.sol",
  "abi": [
    {
      "inputs": [],
      "stateMutability": "nonpayable",
      "type": "constructor"
    },
    {
      "anonymous": false,
      "inputs": [
        {
          "indexed": true,
          "internalType": "address",
          "name": "owner",
          "type": "address"
        },
        {
          "indexed": true,
          "internalType": "address",
          "name": "approved",
          "type": "address"
        },
        {
          "indexed": true,
          "internalType": "uint256",
          "name": "tokenId",
          "type": "uint256"
        }
      ],
      "name": "Approval",
      "type": "event"
    },
    {
      "anonymous": false,
      "inputs": [
        {
          "indexed": true,
          "internalType": "address",
          "name": "owner",
          "type": "address"
        },
        {
          "indexed": true,
          "internalType": "address",
          "name": "operator",
          "type": "address"
        },
        {
          "indexed": false,
          "internalType": "bool",
          "name": "approved",
          "type": "bool"
        }
      ],
      "name": "ApprovalForAll",
      "type": "event"
    },
    {
      "anonymous": false,
      "inputs": [
        {
          "indexed": true,
          "internalType": "uint256",
          "name": "nftId",
          "type": "uint256"
        },
        {
          "indexed": true,
          "internalType": "uint256",
          "name": "roundNumber",
          "type": "uint256"
        }
      ],
      "name": "ListingEvent",
      "type": "event"
    },
    {
      "anonymous": false,
      "inputs": [
        {
          "indexed": true,
          "internalType": "uint256",
          "name": "tokenId",
          "type": "uint256"
        },
        {
          "indexed": true,
          "internalType": "address",
          "name": "owner",
          "type": "address"
        }
      ],
      "name": "MintingEvent",
      "type": "event"
    },
    {
      "anonymous": false,
      "inputs": [
        {
          "indexed": true,
          "internalType": "address",
          "name": "from",
          "type": "address"
        },
        {
          "indexed": true,
          "internalType": "address",
          "name": "to",
          "type": "address"
        },
        {
          "indexed": true,
          "internalType": "uint256",
          "name": "tokenId",
          "type": "uint256"
        }
      ],
      "name": "Transfer",
      "type": "event"
    },
    {
      "anonymous": false,
      "inputs": [
        {
          "indexed": true,
          "internalType": "uint256",
          "name": "nftId",
          "type": "uint256"
        },
        {
          "indexed": true,
          "internalType": "address",
          "name": "voter",
          "type": "address"
        },
        {
          "indexed": false,
          "internalType": "uint256",
          "name": "vote",
          "type": "uint256"
        },
        {
          "indexed": false,
          "internalType": "uint256",
          "name": "tokenCount",
          "type": "uint256"
        }
      ],
      "name": "VotedForAnNFTEvent",
      "type": "event"
    },
    {
      "inputs": [],
      "name": "DEFAULT_FRACTIONS_COUNT",
      "outputs": [
        {
          "internalType": "uint256",
          "name": "",
          "type": "uint256"
        }
      ],
      "stateMutability": "view",
      "type": "function"
    },
    {
      "inputs": [],
      "name": "MINIMUM_INITIAL_LIQUIDITY",
      "outputs": [
        {
          "internalType": "uint256",
          "name": "",
          "type": "uint256"
        }
      ],
      "stateMutability": "view",
      "type": "function"
    },
    {
      "inputs": [],
      "name": "SECONDS_PER_BLOCK",
      "outputs": [
        {
          "internalType": "uint256",
          "name": "",
          "type": "uint256"
        }
      ],
      "stateMutability": "view",
      "type": "function"
    },
    {
      "inputs": [],
      "name": "SECONDS_PER_ROUND",
      "outputs": [
        {
          "internalType": "uint256",
          "name": "",
          "type": "uint256"
        }
      ],
      "stateMutability": "view",
      "type": "function"
    },
    {
      "inputs": [],
      "name": "WINNERS_PER_ROUND",
      "outputs": [
        {
          "internalType": "uint256",
          "name": "",
          "type": "uint256"
        }
      ],
      "stateMutability": "view",
      "type": "function"
    },
    {
      "inputs": [
        {
          "internalType": "uint256",
          "name": "farmId",
          "type": "uint256"
        }
      ],
      "name": "addProfitToFarm",
      "outputs": [],
      "stateMutability": "payable",
      "type": "function"
    },
    {
      "inputs": [
        {
          "internalType": "address",
          "name": "to",
          "type": "address"
        },
        {
          "internalType": "uint256",
          "name": "tokenId",
          "type": "uint256"
        }
      ],
      "name": "approve",
      "outputs": [],
      "stateMutability": "nonpayable",
      "type": "function"
    },
    {
      "inputs": [
        {
          "internalType": "address",
          "name": "owner",
          "type": "address"
        }
      ],
      "name": "balanceOf",
      "outputs": [
        {
          "internalType": "uint256",
          "name": "",
          "type": "uint256"
        }
      ],
      "stateMutability": "view",
      "type": "function"
    },
    {
      "inputs": [
        {
          "internalType": "uint256",
          "name": "farmId",
          "type": "uint256"
        }
      ],
      "name": "claimFarmRewards",
      "outputs": [],
      "stateMutability": "nonpayable",
      "type": "function"
    },
    {
      "inputs": [
        {
          "internalType": "uint256",
          "name": "tokenId",
          "type": "uint256"
        },
        {
          "internalType": "uint256",
          "name": "authorCutPercent",
          "type": "uint256"
        }
      ],
      "name": "createPool",
      "outputs": [],
      "stateMutability": "payable",
      "type": "function"
    },
    {
      "inputs": [
        {
          "internalType": "uint256",
          "name": "",
          "type": "uint256"
        },
        {
          "internalType": "address",
          "name": "",
          "type": "address"
        }
      ],
      "name": "farmBalances",
      "outputs": [
        {
          "internalType": "uint256",
          "name": "",
          "type": "uint256"
        }
      ],
      "stateMutability": "view",
      "type": "function"
    },
    {
      "inputs": [
        {
          "internalType": "uint256",
          "name": "",
          "type": "uint256"
        },
        {
          "internalType": "address",
          "name": "",
          "type": "address"
        }
      ],
      "name": "farmProfits",
      "outputs": [
        {
          "internalType": "uint256",
          "name": "",
          "type": "uint256"
        }
      ],
      "stateMutability": "view",
      "type": "function"
    },
    {
      "inputs": [
        {
          "internalType": "uint256",
          "name": "",
          "type": "uint256"
        }
      ],
      "name": "farm_data",
      "outputs": [
        {
          "internalType": "uint256",
          "name": "farmId",
          "type": "uint256"
        },
        {
          "internalType": "uint256",
          "name": "tokenId",
          "type": "uint256"
        },
        {
          "internalType": "bool",
          "name": "exists",
          "type": "bool"
        },
        {
          "internalType": "uint256",
          "name": "totalLiquidity",
          "type": "uint256"
        }
      ],
      "stateMutability": "view",
      "type": "function"
    },
    {
      "inputs": [
        {
          "internalType": "address",
          "name": "",
          "type": "address"
        },
        {
          "internalType": "uint256",
          "name": "",
          "type": "uint256"
        }
      ],
      "name": "fractionBalances",
      "outputs": [
        {
          "internalType": "uint256",
          "name": "",
          "type": "uint256"
        }
      ],
      "stateMutability": "view",
      "type": "function"
    },
    {
      "inputs": [
        {
          "internalType": "uint256",
          "name": "tokenId",
          "type": "uint256"
        }
      ],
      "name": "getApproved",
      "outputs": [
        {
          "internalType": "address",
          "name": "",
          "type": "address"
        }
      ],
      "stateMutability": "view",
      "type": "function"
    },
    {
      "inputs": [
        {
          "internalType": "address",
          "name": "owner",
          "type": "address"
        },
        {
          "internalType": "address",
          "name": "operator",
          "type": "address"
        }
      ],
      "name": "isApprovedForAll",
      "outputs": [
        {
          "internalType": "bool",
          "name": "",
          "type": "bool"
        }
      ],
      "stateMutability": "view",
      "type": "function"
    },
    {
      "inputs": [],
      "name": "lastTokenId",
      "outputs": [
        {
          "internalType": "uint256",
          "name": "",
          "type": "uint256"
        }
      ],
      "stateMutability": "view",
      "type": "function"
    },
    {
      "inputs": [
        {
          "internalType": "uint256",
          "name": "tokenId",
          "type": "uint256"
        }
      ],
      "name": "makeNewFarm",
      "outputs": [],
      "stateMutability": "nonpayable",
      "type": "function"
    },
    {
      "inputs": [
        {
          "internalType": "string",
          "name": "_tokenURI",
          "type": "string"
        }
      ],
      "name": "mint",
      "outputs": [
        {
          "internalType": "uint256",
          "name": "",
          "type": "uint256"
        }
      ],
      "stateMutability": "nonpayable",
      "type": "function"
    },
    {
      "inputs": [],
      "name": "name",
      "outputs": [
        {
          "internalType": "string",
          "name": "",
          "type": "string"
        }
      ],
      "stateMutability": "view",
      "type": "function"
    },
    {
      "inputs": [
        {
          "internalType": "uint256",
          "name": "tokenId",
          "type": "uint256"
        }
      ],
      "name": "ownerOf",
      "outputs": [
        {
          "internalType": "address",
          "name": "",
          "type": "address"
        }
      ],
      "stateMutability": "view",
      "type": "function"
    },
    {
      "inputs": [
        {
          "internalType": "uint256",
          "name": "",
          "type": "uint256"
        }
      ],
      "name": "pool_data",
      "outputs": [
        {
          "internalType": "uint256",
          "name": "tokenId",
          "type": "uint256"
        },
        {
          "internalType": "uint256",
          "name": "poolId",
          "type": "uint256"
        },
        {
          "internalType": "bool",
          "name": "exists",
          "type": "bool"
        },
        {
          "internalType": "uint256",
          "name": "nft_fractions",
          "type": "uint256"
        },
        {
          "internalType": "uint256",
          "name": "token_liq",
          "type": "uint256"
        }
      ],
      "stateMutability": "view",
      "type": "function"
    },
    {
      "inputs": [
        {
          "internalType": "address",
          "name": "from",
          "type": "address"
        },
        {
          "internalType": "address",
          "name": "to",
          "type": "address"
        },
        {
          "internalType": "uint256",
          "name": "tokenId",
          "type": "uint256"
        }
      ],
      "name": "safeTransferFrom",
      "outputs": [],
      "stateMutability": "nonpayable",
      "type": "function"
    },
    {
      "inputs": [
        {
          "internalType": "address",
          "name": "from",
          "type": "address"
        },
        {
          "internalType": "address",
          "name": "to",
          "type": "address"
        },
        {
          "internalType": "uint256",
          "name": "tokenId",
          "type": "uint256"
        },
        {
          "internalType": "bytes",
          "name": "data",
          "type": "bytes"
        }
      ],
      "name": "safeTransferFrom",
      "outputs": [],
      "stateMutability": "nonpayable",
      "type": "function"
    },
    {
      "inputs": [
        {
          "internalType": "address",
          "name": "operator",
          "type": "address"
        },
        {
          "internalType": "bool",
          "name": "approved",
          "type": "bool"
        }
      ],
      "name": "setApprovalForAll",
      "outputs": [],
      "stateMutability": "nonpayable",
      "type": "function"
    },
    {
      "inputs": [
        {
          "internalType": "uint256",
          "name": "farmId",
          "type": "uint256"
        },
        {
          "internalType": "uint256",
          "name": "fractionCount",
          "type": "uint256"
        }
      ],
      "name": "stakeToFarm",
      "outputs": [],
      "stateMutability": "nonpayable",
      "type": "function"
    },
    {
      "inputs": [
        {
          "internalType": "bytes4",
          "name": "interfaceId",
          "type": "bytes4"
        }
      ],
      "name": "supportsInterface",
      "outputs": [
        {
          "internalType": "bool",
          "name": "",
          "type": "bool"
        }
      ],
      "stateMutability": "view",
      "type": "function"
    },
    {
      "inputs": [
        {
          "internalType": "uint256",
          "name": "poolId",
          "type": "uint256"
        },
        {
          "internalType": "uint256",
          "name": "fractionCount",
          "type": "uint256"
        }
      ],
      "name": "swap",
      "outputs": [],
      "stateMutability": "payable",
      "type": "function"
    },
    {
      "inputs": [],
      "name": "symbol",
      "outputs": [
        {
          "internalType": "string",
          "name": "",
          "type": "string"
        }
      ],
      "stateMutability": "view",
      "type": "function"
    },
    {
      "inputs": [
        {
          "internalType": "uint256",
          "name": "",
          "type": "uint256"
        }
      ],
      "name": "tokenIdToFarmMap",
      "outputs": [
        {
          "internalType": "uint256",
          "name": "",
          "type": "uint256"
        }
      ],
      "stateMutability": "view",
      "type": "function"
    },
    {
      "inputs": [
        {
          "internalType": "uint256",
          "name": "",
          "type": "uint256"
        }
      ],
      "name": "tokenToPoolMap",
      "outputs": [
        {
          "internalType": "uint256",
          "name": "",
          "type": "uint256"
        }
      ],
      "stateMutability": "view",
      "type": "function"
    },
    {
      "inputs": [
        {
          "internalType": "uint256",
          "name": "tokenId",
          "type": "uint256"
        }
      ],
      "name": "tokenURI",
      "outputs": [
        {
          "internalType": "string",
          "name": "",
          "type": "string"
        }
      ],
      "stateMutability": "view",
      "type": "function"
    },
    {
      "inputs": [
        {
          "internalType": "address",
          "name": "from",
          "type": "address"
        },
        {
          "internalType": "address",
          "name": "to",
          "type": "address"
        },
        {
          "internalType": "uint256",
          "name": "tokenId",
          "type": "uint256"
        }
      ],
      "name": "transferFrom",
      "outputs": [],
      "stateMutability": "nonpayable",
      "type": "function"
    },
    {
      "inputs": [
        {
          "internalType": "uint256",
          "name": "farmId",
          "type": "uint256"
        },
        {
          "internalType": "uint256",
          "name": "fractionCount",
          "type": "uint256"
        }
      ],
      "name": "unstakeFromFarm",
      "outputs": [],
      "stateMutability": "nonpayable",
      "type": "function"
    }
  ],
  "bytecode": "0x60806040523480156200001157600080fd5b506040518060400160405280600581526020017f4e667465650000000000000000000000000000000000000000000000000000008152506040518060400160405280600381526020017f4e5445000000000000000000000000000000000000000000000000000000000081525081600090816200008f919062000365565b508060019081620000a1919062000365565b50505033600a60006101000a81548173ffffffffffffffffffffffffffffffffffffffff021916908373ffffffffffffffffffffffffffffffffffffffff1602179055506200044c565b600081519050919050565b7f4e487b7100000000000000000000000000000000000000000000000000000000600052604160045260246000fd5b7f4e487b7100000000000000000000000000000000000000000000000000000000600052602260045260246000fd5b600060028204905060018216806200016d57607f821691505b60208210810362000183576200018262000125565b5b50919050565b60008190508160005260206000209050919050565b60006020601f8301049050919050565b600082821b905092915050565b600060088302620001ed7fffffffffffffffffffffffffffffffffffffffffffffffffffffffffffffffff82620001ae565b620001f98683620001ae565b95508019841693508086168417925050509392505050565b6000819050919050565b6000819050919050565b600062000246620002406200023a8462000211565b6200021b565b62000211565b9050919050565b6000819050919050565b620002628362000225565b6200027a62000271826200024d565b848454620001bb565b825550505050565b600090565b6200029162000282565b6200029e81848462000257565b505050565b5b81811015620002c657620002ba60008262000287565b600181019050620002a4565b5050565b601f8211156200031557620002df8162000189565b620002ea846200019e565b81016020851015620002fa578190505b6200031262000309856200019e565b830182620002a3565b50505b505050565b600082821c905092915050565b60006200033a600019846008026200031a565b1980831691505092915050565b600062000355838362000327565b9150826002028217905092915050565b6200037082620000eb565b67ffffffffffffffff8111156200038c576200038b620000f6565b5b62000398825462000154565b620003a5828285620002ca565b600060209050601f831160018114620003dd5760008415620003c8578287015190505b620003d4858262000347565b86555062000444565b601f198416620003ed8662000189565b60005b828110156200041757848901518255600182019150602085019450602081019050620003f0565b8683101562000437578489015162000433601f89168262000327565b8355505b6001600288020188555050505b505050505050565b6144cf806200045c6000396000f3fe6080604052600436106101f85760003560e01c80638a2bd5df1161010d578063c67b8cc3116100a0578063d96073cf1161006f578063d96073cf14610779578063e985e9c514610795578063f3a1d95f146107d2578063f43542141461080f578063f84ddf0b1461084c576101f8565b8063c67b8cc3146106ab578063c87b56dd146106d6578063d12980ea14610713578063d85d3d271461073c576101f8565b8063a7e82079116100dc578063a7e82079146105ee578063b416110e1461062e578063b88d4fde14610657578063c1d7425814610680576101f8565b80638a2bd5df1461054157806395d89b411461055d57806399e2206d14610588578063a22cb465146105c5576101f8565b806323b872dd1161019057806356c01f221161015f57806356c01f221461042d578063612883fb1461046a5780636352211e146104ab57806370a08231146104e857806374a110c214610525576101f8565b806323b872dd1461037557806335fe79be1461039e5780633729ae21146103c757806342842e0e14610404576101f8565b8063081812fc116101cc578063081812fc146102bb578063095ea7b3146102f85780630998bb40146103215780631cecfca11461034a576101f8565b806280c1ae146101fd57806301e7cb021461022857806301ffc9a71461025357806306fdde0314610290575b600080fd5b34801561020957600080fd5b50610212610877565b60405161021f9190612da7565b60405180910390f35b34801561023457600080fd5b5061023d61087c565b60405161024a9190612da7565b60405180910390f35b34801561025f57600080fd5b5061027a60048036038101906102759190612e2e565b610882565b6040516102879190612e76565b60405180910390f35b34801561029c57600080fd5b506102a5610964565b6040516102b29190612f21565b60405180910390f35b3480156102c757600080fd5b506102e260048036038101906102dd9190612f6f565b6109f6565b6040516102ef9190612fdd565b60405180910390f35b34801561030457600080fd5b5061031f600480360381019061031a9190613024565b610a3c565b005b34801561032d57600080fd5b5061034860048036038101906103439190612f6f565b610b53565b005b34801561035657600080fd5b5061035f610ba4565b60405161036c9190612da7565b60405180910390f35b34801561038157600080fd5b5061039c60048036038101906103979190613064565b610ba9565b005b3480156103aa57600080fd5b506103c560048036038101906103c091906130b7565b610c09565b005b3480156103d357600080fd5b506103ee60048036038101906103e99190612f6f565b610e05565b6040516103fb9190612da7565b60405180910390f35b34801561041057600080fd5b5061042b60048036038101906104269190613064565b610e1d565b005b34801561043957600080fd5b50610454600480360381019061044f91906130f7565b610e3d565b6040516104619190612da7565b60405180910390f35b34801561047657600080fd5b50610491600480360381019061048c9190612f6f565b610e62565b6040516104a2959493929190613137565b60405180910390f35b3480156104b757600080fd5b506104d260048036038101906104cd9190612f6f565b610ea5565b6040516104df9190612fdd565b60405180910390f35b3480156104f457600080fd5b5061050f600480360381019061050a919061318a565b610f2b565b60405161051c9190612da7565b60405180910390f35b61053f600480360381019061053a91906130b7565b610fe2565b005b61055b60048036038101906105569190612f6f565b611276565b005b34801561056957600080fd5b506105726112c7565b60405161057f9190612f21565b60405180910390f35b34801561059457600080fd5b506105af60048036038101906105aa91906130f7565b611359565b6040516105bc9190612da7565b60405180910390f35b3480156105d157600080fd5b506105ec60048036038101906105e791906131e3565b61137e565b005b3480156105fa57600080fd5b5061061560048036038101906106109190612f6f565b611394565b6040516106259493929190613223565b60405180910390f35b34801561063a57600080fd5b50610655600480360381019061065091906130b7565b6113d1565b005b34801561066357600080fd5b5061067e6004803603810190610679919061339d565b6115cd565b005b34801561068c57600080fd5b5061069561162f565b6040516106a29190612da7565b60405180910390f35b3480156106b757600080fd5b506106c0611634565b6040516106cd9190612da7565b60405180910390f35b3480156106e257600080fd5b506106fd60048036038101906106f89190612f6f565b611639565b60405161070a9190612f21565b60405180910390f35b34801561071f57600080fd5b5061073a60048036038101906107359190612f6f565b61174b565b005b34801561074857600080fd5b50610763600480360381019061075e9190613480565b6118a0565b6040516107709190612da7565b60405180910390f35b610793600480360381019061078e91906130b7565b611960565b005b3480156107a157600080fd5b506107bc60048036038101906107b791906134cd565b611d3e565b6040516107c99190612e76565b60405180910390f35b3480156107de57600080fd5b506107f960048036038101906107f49190613024565b611dd2565b6040516108069190612da7565b60405180910390f35b34801561081b57600080fd5b5061083660048036038101906108319190612f6f565b611df7565b6040516108439190612da7565b60405180910390f35b34801561085857600080fd5b50610861611e0f565b60405161086e9190612da7565b60405180910390f35b600281565b61271081565b60007f80ac58cd000000000000000000000000000000000000000000000000000000007bffffffffffffffffffffffffffffffffffffffffffffffffffffffff1916827bffffffffffffffffffffffffffffffffffffffffffffffffffffffff1916148061094d57507f5b5e139f000000000000000000000000000000000000000000000000000000007bffffffffffffffffffffffffffffffffffffffffffffffffffffffff1916827bffffffffffffffffffffffffffffffffffffffffffffffffffffffff1916145b8061095d575061095c82611e20565b5b9050919050565b6060600080546109739061353c565b80601f016020809104026020016040519081016040528092919081815260200182805461099f9061353c565b80156109ec5780601f106109c1576101008083540402835291602001916109ec565b820191906000526020600020905b8154815290600101906020018083116109cf57829003601f168201915b5050505050905090565b6000610a0182611e8a565b6004600083815260200190815260200160002060009054906101000a900473ffffffffffffffffffffffffffffffffffffffff169050919050565b6000610a4782610ea5565b90508073ffffffffffffffffffffffffffffffffffffffff168373ffffffffffffffffffffffffffffffffffffffff1603610ab7576040517f08c379a0000000000000000000000000000000000000000000000000000000008152600401610aae906135df565b60405180910390fd5b8073ffffffffffffffffffffffffffffffffffffffff16610ad6611ed5565b73ffffffffffffffffffffffffffffffffffffffff161480610b055750610b0481610aff611ed5565b611d3e565b5b610b44576040517f08c379a0000000000000000000000000000000000000000000000000000000008152600401610b3b90613671565b60405180910390fd5b610b4e8383611edd565b505050565b80610b5e6009611f96565b811115610ba0576040517f08c379a0000000000000000000000000000000000000000000000000000000008152600401610b97906136dd565b60405180910390fd5b5050565b601e81565b610bba610bb4611ed5565b82611fa4565b610bf9576040517f08c379a0000000000000000000000000000000000000000000000000000000008152600401610bf09061376f565b60405180910390fd5b610c04838383612039565b505050565b81610c146009611f96565b811115610c56576040517f08c379a0000000000000000000000000000000000000000000000000000000008152600401610c4d906136dd565b60405180910390fd5b6000600e6000858152602001908152602001600020600101549050826010600083815260200190815260200160002060003373ffffffffffffffffffffffffffffffffffffffff1673ffffffffffffffffffffffffffffffffffffffff168152602001908152602001600020541015610d04576040517f08c379a0000000000000000000000000000000000000000000000000000000008152600401610cfb906137db565b60405180910390fd5b826010600083815260200190815260200160002060003373ffffffffffffffffffffffffffffffffffffffff1673ffffffffffffffffffffffffffffffffffffffff1681526020019081526020016000206000828254610d64919061382a565b9250508190555082600e60008681526020019081526020016000206003016000828254610d91919061382a565b9250508190555082600d60003373ffffffffffffffffffffffffffffffffffffffff1673ffffffffffffffffffffffffffffffffffffffff16815260200190815260200160002060008381526020019081526020016000206000828254610df8919061385e565b9250508190555050505050565b600c6020528060005260406000206000915090505481565b610e38838383604051806020016040528060008152506115cd565b505050565b6010602052816000526040600020602052806000526040600020600091509150505481565b600b6020528060005260406000206000915090508060000154908060010154908060020160009054906101000a900460ff16908060030154908060040154905085565b600080610eb183612332565b9050600073ffffffffffffffffffffffffffffffffffffffff168173ffffffffffffffffffffffffffffffffffffffff1603610f22576040517f08c379a0000000000000000000000000000000000000000000000000000000008152600401610f19906138de565b60405180910390fd5b80915050919050565b60008073ffffffffffffffffffffffffffffffffffffffff168273ffffffffffffffffffffffffffffffffffffffff1603610f9b576040517f08c379a0000000000000000000000000000000000000000000000000000000008152600401610f9290613970565b60405180910390fd5b600360008373ffffffffffffffffffffffffffffffffffffffff1673ffffffffffffffffffffffffffffffffffffffff168152602001908152602001600020549050919050565b81610fed6007611f96565b81111561102f576040517f08c379a0000000000000000000000000000000000000000000000000000000008152600401611026906139dc565b60405180910390fd5b6064821115611073576040517f08c379a000000000000000000000000000000000000000000000000000000000815260040161106a90613a48565b60405180910390fd5b601434116110b6576040517f08c379a00000000000000000000000000000000000000000000000000000000081526004016110ad90613ab4565b60405180910390fd5b6110bf83610ea5565b73ffffffffffffffffffffffffffffffffffffffff163373ffffffffffffffffffffffffffffffffffffffff161461112c576040517f08c379a000000000000000000000000000000000000000000000000000000000815260040161112390613b20565b60405180910390fd5b611137333085610ba9565b611141600861236f565b600061114d6008611f96565b905060006064846127106111619190613b40565b61116b9190613bb1565b90506040518060a001604052808681526020018381526020016001151581526020018261271061119b919061382a565b815260200134815250600b6000848152602001908152602001600020600082015181600001556020820151816001015560408201518160020160006101000a81548160ff021916908315150217905550606082015181600301556080820151816004015590505081600c60008781526020019081526020016000208190555080600d60003373ffffffffffffffffffffffffffffffffffffffff1673ffffffffffffffffffffffffffffffffffffffff1681526020019081526020016000206000878152602001908152602001600020819055505050505050565b806112816009611f96565b8111156112c3576040517f08c379a00000000000000000000000000000000000000000000000000000000081526004016112ba906136dd565b60405180910390fd5b5050565b6060600180546112d69061353c565b80601f01602080910402602001604051908101604052809291908181526020018280546113029061353c565b801561134f5780601f106113245761010080835404028352916020019161134f565b820191906000526020600020905b81548152906001019060200180831161133257829003601f168201915b5050505050905090565b6011602052816000526040600020602052806000526040600020600091509150505481565b611390611389611ed5565b8383612385565b5050565b600e6020528060005260406000206000915090508060000154908060010154908060020160009054906101000a900460ff16908060030154905084565b816113dc6009611f96565b81111561141e576040517f08c379a0000000000000000000000000000000000000000000000000000000008152600401611415906136dd565b60405180910390fd5b6000600e6000858152602001908152602001600020600101549050600d60003373ffffffffffffffffffffffffffffffffffffffff1673ffffffffffffffffffffffffffffffffffffffff1681526020019081526020016000206000828152602001908152602001600020548311156114cc576040517f08c379a00000000000000000000000000000000000000000000000000000000081526004016114c390613c2e565b60405180910390fd5b82600d60003373ffffffffffffffffffffffffffffffffffffffff1673ffffffffffffffffffffffffffffffffffffffff1681526020019081526020016000206000838152602001908152602001600020600082825461152c919061382a565b92505081905550826010600086815260200190815260200160002060003373ffffffffffffffffffffffffffffffffffffffff1673ffffffffffffffffffffffffffffffffffffffff1681526020019081526020016000206000828254611593919061385e565b9250508190555082600e600086815260200190815260200160002060030160008282546115c0919061385e565b9250508190555050505050565b6115de6115d8611ed5565b83611fa4565b61161d576040517f08c379a00000000000000000000000000000000000000000000000000000000081526004016116149061376f565b60405180910390fd5b611629848484846124f1565b50505050565b600281565b601481565b606061164482611e8a565b60006006600084815260200190815260200160002080546116649061353c565b80601f01602080910402602001604051908101604052809291908181526020018280546116909061353c565b80156116dd5780601f106116b2576101008083540402835291602001916116dd565b820191906000526020600020905b8154815290600101906020018083116116c057829003601f168201915b5050505050905060006116ee61254d565b90506000815103611703578192505050611746565b600082511115611738578082604051602001611720929190613c8a565b60405160208183030381529060405292505050611746565b61174184612564565b925050505b919050565b600a60009054906101000a900473ffffffffffffffffffffffffffffffffffffffff1673ffffffffffffffffffffffffffffffffffffffff163373ffffffffffffffffffffffffffffffffffffffff16146117a557600080fd5b806117b06007611f96565b8111156117f2576040517f08c379a00000000000000000000000000000000000000000000000000000000081526004016117e9906139dc565b60405180910390fd5b6117fc600961236f565b60006118086009611f96565b905080600f60008581526020019081526020016000208190555060405180608001604052808281526020018481526020016001151581526020016000815250600e6000838152602001908152602001600020600082015181600001556020820151816001015560408201518160020160006101000a81548160ff02191690831515021790555060608201518160030155905050505050565b60006118ac600761236f565b60006118b86007611f96565b90506118c433826125cc565b6119128185858080601f016020809104026020016040519081016040528093929190818152602001838380828437600081840152601f19601f820116905080830192505050505050506127e9565b3373ffffffffffffffffffffffffffffffffffffffff16817f394567d00aaa992bb8ad351eeef7d57db51a0e54af3d224f7831331df65b4cf560405160405180910390a38091505092915050565b6000341180156119705750600081115b156119b0576040517f08c379a00000000000000000000000000000000000000000000000000000000081526004016119a790613d20565b60405180910390fd5b6000600b600084815260200190815260200160002060040154600b6000858152602001908152602001600020600301546119ea9190613b40565b90506000600b60008581526020019081526020016000206040518060a001604052908160008201548152602001600182015481526020016002820160009054906101000a900460ff161515151581526020016003820154815260200160048201548152505090506000341115611b53576000348260800151611a6c919061385e565b83611a779190613bb1565b8260600151611a86919061382a565b905080600b60008781526020019081526020016000206003016000828254611aae919061382a565b9250508190555034600b60008781526020019081526020016000206004016000828254611adb919061385e565b9250508190555080600d60003373ffffffffffffffffffffffffffffffffffffffff1673ffffffffffffffffffffffffffffffffffffffff1681526020019081526020016000206000846000015181526020019081526020016000206000828254611b46919061385e565b9250508190555050611d38565b82600d60003373ffffffffffffffffffffffffffffffffffffffff1673ffffffffffffffffffffffffffffffffffffffff1681526020019081526020016000206000600b6000888152602001908152602001600020600001548152602001908152602001600020541015611bfc576040517f08c379a0000000000000000000000000000000000000000000000000000000008152600401611bf390613d8c565b60405180910390fd5b6000838260600151611c0e919061385e565b83611c199190613bb1565b8260800151611c28919061382a565b905080600b60008781526020019081526020016000206004016000828254611c50919061382a565b925050819055503373ffffffffffffffffffffffffffffffffffffffff166108fc829081150290604051600060405180830381858888f19350505050158015611c9d573d6000803e3d6000fd5b5083600b60008781526020019081526020016000206003016000828254611cc4919061385e565b9250508190555083600d60003373ffffffffffffffffffffffffffffffffffffffff1673ffffffffffffffffffffffffffffffffffffffff1681526020019081526020016000206000846000015181526020019081526020016000206000828254611d2f919061382a565b92505081905550505b50505050565b6000600560008473ffffffffffffffffffffffffffffffffffffffff1673ffffffffffffffffffffffffffffffffffffffff16815260200190815260200160002060008373ffffffffffffffffffffffffffffffffffffffff1673ffffffffffffffffffffffffffffffffffffffff16815260200190815260200160002060009054906101000a900460ff16905092915050565b600d602052816000526040600020602052806000526040600020600091509150505481565b600f6020528060005260406000206000915090505481565b6000611e1b6007611f96565b905090565b60007f01ffc9a7000000000000000000000000000000000000000000000000000000007bffffffffffffffffffffffffffffffffffffffffffffffffffffffff1916827bffffffffffffffffffffffffffffffffffffffffffffffffffffffff1916149050919050565b611e9381612856565b611ed2576040517f08c379a0000000000000000000000000000000000000000000000000000000008152600401611ec9906138de565b60405180910390fd5b50565b600033905090565b816004600083815260200190815260200160002060006101000a81548173ffffffffffffffffffffffffffffffffffffffff021916908373ffffffffffffffffffffffffffffffffffffffff160217905550808273ffffffffffffffffffffffffffffffffffffffff16611f5083610ea5565b73ffffffffffffffffffffffffffffffffffffffff167f8c5be1e5ebec7d5bd14f71427d1e84f3dd0314c0f7b2291e5b200ac8c7c3b92560405160405180910390a45050565b600081600001549050919050565b600080611fb083610ea5565b90508073ffffffffffffffffffffffffffffffffffffffff168473ffffffffffffffffffffffffffffffffffffffff161480611ff25750611ff18185611d3e565b5b8061203057508373ffffffffffffffffffffffffffffffffffffffff16612018846109f6565b73ffffffffffffffffffffffffffffffffffffffff16145b91505092915050565b8273ffffffffffffffffffffffffffffffffffffffff1661205982610ea5565b73ffffffffffffffffffffffffffffffffffffffff16146120af576040517f08c379a00000000000000000000000000000000000000000000000000000000081526004016120a690613e1e565b60405180910390fd5b600073ffffffffffffffffffffffffffffffffffffffff168273ffffffffffffffffffffffffffffffffffffffff160361211e576040517f08c379a000000000000000000000000000000000000000000000000000000000815260040161211590613eb0565b60405180910390fd5b61212b8383836001612897565b8273ffffffffffffffffffffffffffffffffffffffff1661214b82610ea5565b73ffffffffffffffffffffffffffffffffffffffff16146121a1576040517f08c379a000000000000000000000000000000000000000000000000000000000815260040161219890613e1e565b60405180910390fd5b6004600082815260200190815260200160002060006101000a81549073ffffffffffffffffffffffffffffffffffffffff02191690556001600360008573ffffffffffffffffffffffffffffffffffffffff1673ffffffffffffffffffffffffffffffffffffffff168152602001908152602001600020600082825403925050819055506001600360008473ffffffffffffffffffffffffffffffffffffffff1673ffffffffffffffffffffffffffffffffffffffff16815260200190815260200160002060008282540192505081905550816002600083815260200190815260200160002060006101000a81548173ffffffffffffffffffffffffffffffffffffffff021916908373ffffffffffffffffffffffffffffffffffffffff160217905550808273ffffffffffffffffffffffffffffffffffffffff168473ffffffffffffffffffffffffffffffffffffffff167fddf252ad1be2c89b69c2b068fc378daa952ba7f163c4a11628f55a4df523b3ef60405160405180910390a461232d83838360016129bd565b505050565b60006002600083815260200190815260200160002060009054906101000a900473ffffffffffffffffffffffffffffffffffffffff169050919050565b6001816000016000828254019250508190555050565b8173ffffffffffffffffffffffffffffffffffffffff168373ffffffffffffffffffffffffffffffffffffffff16036123f3576040517f08c379a00000000000000000000000000000000000000000000000000000000081526004016123ea90613f1c565b60405180910390fd5b80600560008573ffffffffffffffffffffffffffffffffffffffff1673ffffffffffffffffffffffffffffffffffffffff16815260200190815260200160002060008473ffffffffffffffffffffffffffffffffffffffff1673ffffffffffffffffffffffffffffffffffffffff16815260200190815260200160002060006101000a81548160ff0219169083151502179055508173ffffffffffffffffffffffffffffffffffffffff168373ffffffffffffffffffffffffffffffffffffffff167f17307eab39ab6107e8899845ad3d59bd9653f200f220920489ca2b5937696c31836040516124e49190612e76565b60405180910390a3505050565b6124fc848484612039565b612508848484846129c3565b612547576040517f08c379a000000000000000000000000000000000000000000000000000000000815260040161253e90613fae565b60405180910390fd5b50505050565b606060405180602001604052806000815250905090565b606061256f82611e8a565b600061257961254d565b9050600081511161259957604051806020016040528060008152506125c4565b806125a384612b4a565b6040516020016125b4929190613c8a565b6040516020818303038152906040525b915050919050565b600073ffffffffffffffffffffffffffffffffffffffff168273ffffffffffffffffffffffffffffffffffffffff160361263b576040517f08c379a00000000000000000000000000000000000000000000000000000000081526004016126329061401a565b60405180910390fd5b61264481612856565b15612684576040517f08c379a000000000000000000000000000000000000000000000000000000000815260040161267b90614086565b60405180910390fd5b612692600083836001612897565b61269b81612856565b156126db576040517f08c379a00000000000000000000000000000000000000000000000000000000081526004016126d290614086565b60405180910390fd5b6001600360008473ffffffffffffffffffffffffffffffffffffffff1673ffffffffffffffffffffffffffffffffffffffff16815260200190815260200160002060008282540192505081905550816002600083815260200190815260200160002060006101000a81548173ffffffffffffffffffffffffffffffffffffffff021916908373ffffffffffffffffffffffffffffffffffffffff160217905550808273ffffffffffffffffffffffffffffffffffffffff16600073ffffffffffffffffffffffffffffffffffffffff167fddf252ad1be2c89b69c2b068fc378daa952ba7f163c4a11628f55a4df523b3ef60405160405180910390a46127e56000838360016129bd565b5050565b6127f282612856565b612831576040517f08c379a000000000000000000000000000000000000000000000000000000000815260040161282890614118565b60405180910390fd5b8060066000848152602001908152602001600020908161285191906142e4565b505050565b60008073ffffffffffffffffffffffffffffffffffffffff1661287883612332565b73ffffffffffffffffffffffffffffffffffffffff1614159050919050565b60018111156129b757600073ffffffffffffffffffffffffffffffffffffffff168473ffffffffffffffffffffffffffffffffffffffff161461292b5780600360008673ffffffffffffffffffffffffffffffffffffffff1673ffffffffffffffffffffffffffffffffffffffff1681526020019081526020016000206000828254612923919061382a565b925050819055505b600073ffffffffffffffffffffffffffffffffffffffff168373ffffffffffffffffffffffffffffffffffffffff16146129b65780600360008573ffffffffffffffffffffffffffffffffffffffff1673ffffffffffffffffffffffffffffffffffffffff16815260200190815260200160002060008282546129ae919061385e565b925050819055505b5b50505050565b50505050565b60006129e48473ffffffffffffffffffffffffffffffffffffffff16612c18565b15612b3d578373ffffffffffffffffffffffffffffffffffffffff1663150b7a02612a0d611ed5565b8786866040518563ffffffff1660e01b8152600401612a2f949392919061440b565b6020604051808303816000875af1925050508015612a6b57506040513d601f19601f82011682018060405250810190612a68919061446c565b60015b612aed573d8060008114612a9b576040519150601f19603f3d011682016040523d82523d6000602084013e612aa0565b606091505b506000815103612ae5576040517f08c379a0000000000000000000000000000000000000000000000000000000008152600401612adc90613fae565b60405180910390fd5b805181602001fd5b63150b7a0260e01b7bffffffffffffffffffffffffffffffffffffffffffffffffffffffff1916817bffffffffffffffffffffffffffffffffffffffffffffffffffffffff191614915050612b42565b600190505b949350505050565b606060006001612b5984612c3b565b01905060008167ffffffffffffffff811115612b7857612b77613272565b5b6040519080825280601f01601f191660200182016040528015612baa5781602001600182028036833780820191505090505b509050600082602001820190505b600115612c0d578080600190039150507f3031323334353637383961626364656600000000000000000000000000000000600a86061a8153600a8581612c0157612c00613b82565b5b04945060008503612bb8575b819350505050919050565b6000808273ffffffffffffffffffffffffffffffffffffffff163b119050919050565b600080600090507a184f03e93ff9f4daa797ed6e38ed64bf6a1f0100000000000000008310612c99577a184f03e93ff9f4daa797ed6e38ed64bf6a1f0100000000000000008381612c8f57612c8e613b82565b5b0492506040810190505b6d04ee2d6d415b85acef81000000008310612cd6576d04ee2d6d415b85acef81000000008381612ccc57612ccb613b82565b5b0492506020810190505b662386f26fc100008310612d0557662386f26fc100008381612cfb57612cfa613b82565b5b0492506010810190505b6305f5e1008310612d2e576305f5e1008381612d2457612d23613b82565b5b0492506008810190505b6127108310612d53576127108381612d4957612d48613b82565b5b0492506004810190505b60648310612d765760648381612d6c57612d6b613b82565b5b0492506002810190505b600a8310612d85576001810190505b80915050919050565b6000819050919050565b612da181612d8e565b82525050565b6000602082019050612dbc6000830184612d98565b92915050565b6000604051905090565b600080fd5b600080fd5b60007fffffffff0000000000000000000000000000000000000000000000000000000082169050919050565b612e0b81612dd6565b8114612e1657600080fd5b50565b600081359050612e2881612e02565b92915050565b600060208284031215612e4457612e43612dcc565b5b6000612e5284828501612e19565b91505092915050565b60008115159050919050565b612e7081612e5b565b82525050565b6000602082019050612e8b6000830184612e67565b92915050565b600081519050919050565b600082825260208201905092915050565b60005b83811015612ecb578082015181840152602081019050612eb0565b60008484015250505050565b6000601f19601f8301169050919050565b6000612ef382612e91565b612efd8185612e9c565b9350612f0d818560208601612ead565b612f1681612ed7565b840191505092915050565b60006020820190508181036000830152612f3b8184612ee8565b905092915050565b612f4c81612d8e565b8114612f5757600080fd5b50565b600081359050612f6981612f43565b92915050565b600060208284031215612f8557612f84612dcc565b5b6000612f9384828501612f5a565b91505092915050565b600073ffffffffffffffffffffffffffffffffffffffff82169050919050565b6000612fc782612f9c565b9050919050565b612fd781612fbc565b82525050565b6000602082019050612ff26000830184612fce565b92915050565b61300181612fbc565b811461300c57600080fd5b50565b60008135905061301e81612ff8565b92915050565b6000806040838503121561303b5761303a612dcc565b5b60006130498582860161300f565b925050602061305a85828601612f5a565b9150509250929050565b60008060006060848603121561307d5761307c612dcc565b5b600061308b8682870161300f565b935050602061309c8682870161300f565b92505060406130ad86828701612f5a565b9150509250925092565b600080604083850312156130ce576130cd612dcc565b5b60006130dc85828601612f5a565b92505060206130ed85828601612f5a565b9150509250929050565b6000806040838503121561310e5761310d612dcc565b5b600061311c85828601612f5a565b925050602061312d8582860161300f565b9150509250929050565b600060a08201905061314c6000830188612d98565b6131596020830187612d98565b6131666040830186612e67565b6131736060830185612d98565b6131806080830184612d98565b9695505050505050565b6000602082840312156131a05761319f612dcc565b5b60006131ae8482850161300f565b91505092915050565b6131c081612e5b565b81146131cb57600080fd5b50565b6000813590506131dd816131b7565b92915050565b600080604083850312156131fa576131f9612dcc565b5b60006132088582860161300f565b9250506020613219858286016131ce565b9150509250929050565b60006080820190506132386000830187612d98565b6132456020830186612d98565b6132526040830185612e67565b61325f6060830184612d98565b95945050505050565b600080fd5b600080fd5b7f4e487b7100000000000000000000000000000000000000000000000000000000600052604160045260246000fd5b6132aa82612ed7565b810181811067ffffffffffffffff821117156132c9576132c8613272565b5b80604052505050565b60006132dc612dc2565b90506132e882826132a1565b919050565b600067ffffffffffffffff82111561330857613307613272565b5b61331182612ed7565b9050602081019050919050565b82818337600083830152505050565b600061334061333b846132ed565b6132d2565b90508281526020810184848401111561335c5761335b61326d565b5b61336784828561331e565b509392505050565b600082601f83011261338457613383613268565b5b813561339484826020860161332d565b91505092915050565b600080600080608085870312156133b7576133b6612dcc565b5b60006133c58782880161300f565b94505060206133d68782880161300f565b93505060406133e787828801612f5a565b925050606085013567ffffffffffffffff81111561340857613407612dd1565b5b6134148782880161336f565b91505092959194509250565b600080fd5b600080fd5b60008083601f8401126134405761343f613268565b5b8235905067ffffffffffffffff81111561345d5761345c613420565b5b60208301915083600182028301111561347957613478613425565b5b9250929050565b6000806020838503121561349757613496612dcc565b5b600083013567ffffffffffffffff8111156134b5576134b4612dd1565b5b6134c18582860161342a565b92509250509250929050565b600080604083850312156134e4576134e3612dcc565b5b60006134f28582860161300f565b92505060206135038582860161300f565b9150509250929050565b7f4e487b7100000000000000000000000000000000000000000000000000000000600052602260045260246000fd5b6000600282049050600182168061355457607f821691505b6020821081036135675761356661350d565b5b50919050565b7f4552433732313a20617070726f76616c20746f2063757272656e74206f776e6560008201527f7200000000000000000000000000000000000000000000000000000000000000602082015250565b60006135c9602183612e9c565b91506135d48261356d565b604082019050919050565b600060208201905081810360008301526135f8816135bc565b9050919050565b7f4552433732313a20617070726f76652063616c6c6572206973206e6f7420746f60008201527f6b656e206f776e6572206f7220617070726f76656420666f7220616c6c000000602082015250565b600061365b603d83612e9c565b9150613666826135ff565b604082019050919050565b6000602082019050818103600083015261368a8161364e565b9050919050565b7f496e76616c6964206661726d2069640000000000000000000000000000000000600082015250565b60006136c7600f83612e9c565b91506136d282613691565b602082019050919050565b600060208201905081810360008301526136f6816136ba565b9050919050565b7f4552433732313a2063616c6c6572206973206e6f7420746f6b656e206f776e6560008201527f72206f7220617070726f76656400000000000000000000000000000000000000602082015250565b6000613759602d83612e9c565b9150613764826136fd565b604082019050919050565b600060208201905081810360008301526137888161374c565b9050919050565b7f4e6f7420656e6f7567682062616c616e636520696e206661726d000000000000600082015250565b60006137c5601a83612e9c565b91506137d08261378f565b602082019050919050565b600060208201905081810360008301526137f4816137b8565b9050919050565b7f4e487b7100000000000000000000000000000000000000000000000000000000600052601160045260246000fd5b600061383582612d8e565b915061384083612d8e565b9250828203905081811115613858576138576137fb565b5b92915050565b600061386982612d8e565b915061387483612d8e565b925082820190508082111561388c5761388b6137fb565b5b92915050565b7f4552433732313a20696e76616c696420746f6b656e2049440000000000000000600082015250565b60006138c8601883612e9c565b91506138d382613892565b602082019050919050565b600060208201905081810360008301526138f7816138bb565b9050919050565b7f4552433732313a2061646472657373207a65726f206973206e6f74206120766160008201527f6c6964206f776e65720000000000000000000000000000000000000000000000602082015250565b600061395a602983612e9c565b9150613965826138fe565b604082019050919050565b600060208201905081810360008301526139898161394d565b9050919050565b7f496e76616c696420746f6b656e20496400000000000000000000000000000000600082015250565b60006139c6601083612e9c565b91506139d182613990565b602082019050919050565b600060208201905081810360008301526139f5816139b9565b9050919050565b7f43616e6e6f7420636c61696d206d6f7265207468616e20313030250000000000600082015250565b6000613a32601b83612e9c565b9150613a3d826139fc565b602082019050919050565b60006020820190508181036000830152613a6181613a25565b9050919050565b7f4e6f20696e697469616c206c69717569646974792070726f7669646564000000600082015250565b6000613a9e601d83612e9c565b9150613aa982613a68565b602082019050919050565b60006020820190508181036000830152613acd81613a91565b9050919050565b7f4f6e6c79206f776e65722063616e206c69737420616e20617373657400000000600082015250565b6000613b0a601c83612e9c565b9150613b1582613ad4565b602082019050919050565b60006020820190508181036000830152613b3981613afd565b9050919050565b6000613b4b82612d8e565b9150613b5683612d8e565b9250828202613b6481612d8e565b91508282048414831517613b7b57613b7a6137fb565b5b5092915050565b7f4e487b7100000000000000000000000000000000000000000000000000000000600052601260045260246000fd5b6000613bbc82612d8e565b9150613bc783612d8e565b925082613bd757613bd6613b82565b5b828204905092915050565b7f496e73756666696369656e74206672616374696f6e2062616c616e6365000000600082015250565b6000613c18601d83612e9c565b9150613c2382613be2565b602082019050919050565b60006020820190508181036000830152613c4781613c0b565b9050919050565b600081905092915050565b6000613c6482612e91565b613c6e8185613c4e565b9350613c7e818560208601612ead565b80840191505092915050565b6000613c968285613c59565b9150613ca28284613c59565b91508190509392505050565b7f496e76616c69642063616c6c2e2043616e6e6f7420646563696465207768696360008201527f6820736964650000000000000000000000000000000000000000000000000000602082015250565b6000613d0a602683612e9c565b9150613d1582613cae565b604082019050919050565b60006020820190508181036000830152613d3981613cfd565b9050919050565b7f4e6f7420656e6f756768206672616374696f6e7320696e2062616c616e636500600082015250565b6000613d76601f83612e9c565b9150613d8182613d40565b602082019050919050565b60006020820190508181036000830152613da581613d69565b9050919050565b7f4552433732313a207472616e736665722066726f6d20696e636f72726563742060008201527f6f776e6572000000000000000000000000000000000000000000000000000000602082015250565b6000613e08602583612e9c565b9150613e1382613dac565b604082019050919050565b60006020820190508181036000830152613e3781613dfb565b9050919050565b7f4552433732313a207472616e7366657220746f20746865207a65726f2061646460008201527f7265737300000000000000000000000000000000000000000000000000000000602082015250565b6000613e9a602483612e9c565b9150613ea582613e3e565b604082019050919050565b60006020820190508181036000830152613ec981613e8d565b9050919050565b7f4552433732313a20617070726f766520746f2063616c6c657200000000000000600082015250565b6000613f06601983612e9c565b9150613f1182613ed0565b602082019050919050565b60006020820190508181036000830152613f3581613ef9565b9050919050565b7f4552433732313a207472616e7366657220746f206e6f6e20455243373231526560008201527f63656976657220696d706c656d656e7465720000000000000000000000000000602082015250565b6000613f98603283612e9c565b9150613fa382613f3c565b604082019050919050565b60006020820190508181036000830152613fc781613f8b565b9050919050565b7f4552433732313a206d696e7420746f20746865207a65726f2061646472657373600082015250565b6000614004602083612e9c565b915061400f82613fce565b602082019050919050565b6000602082019050818103600083015261403381613ff7565b9050919050565b7f4552433732313a20746f6b656e20616c7265616479206d696e74656400000000600082015250565b6000614070601c83612e9c565b915061407b8261403a565b602082019050919050565b6000602082019050818103600083015261409f81614063565b9050919050565b7f45524337323155524953746f726167653a2055524920736574206f66206e6f6e60008201527f6578697374656e7420746f6b656e000000000000000000000000000000000000602082015250565b6000614102602e83612e9c565b915061410d826140a6565b604082019050919050565b60006020820190508181036000830152614131816140f5565b9050919050565b60008190508160005260206000209050919050565b60006020601f8301049050919050565b600082821b905092915050565b60006008830261419a7fffffffffffffffffffffffffffffffffffffffffffffffffffffffffffffffff8261415d565b6141a4868361415d565b95508019841693508086168417925050509392505050565b6000819050919050565b60006141e16141dc6141d784612d8e565b6141bc565b612d8e565b9050919050565b6000819050919050565b6141fb836141c6565b61420f614207826141e8565b84845461416a565b825550505050565b600090565b614224614217565b61422f8184846141f2565b505050565b5b818110156142535761424860008261421c565b600181019050614235565b5050565b601f8211156142985761426981614138565b6142728461414d565b81016020851015614281578190505b61429561428d8561414d565b830182614234565b50505b505050565b600082821c905092915050565b60006142bb6000198460080261429d565b1980831691505092915050565b60006142d483836142aa565b9150826002028217905092915050565b6142ed82612e91565b67ffffffffffffffff81111561430657614305613272565b5b614310825461353c565b61431b828285614257565b600060209050601f83116001811461434e576000841561433c578287015190505b61434685826142c8565b8655506143ae565b601f19841661435c86614138565b60005b828110156143845784890151825560018201915060208501945060208101905061435f565b868310156143a1578489015161439d601f8916826142aa565b8355505b6001600288020188555050505b505050505050565b600081519050919050565b600082825260208201905092915050565b60006143dd826143b6565b6143e781856143c1565b93506143f7818560208601612ead565b61440081612ed7565b840191505092915050565b60006080820190506144206000830187612fce565b61442d6020830186612fce565b61443a6040830185612d98565b818103606083015261444c81846143d2565b905095945050505050565b60008151905061446681612e02565b92915050565b60006020828403121561448257614481612dcc565b5b600061449084828501614457565b9150509291505056fea264697066735822122028da937831bafa0d4f5ac6ad0d7e2aea4bc9ef9cdf792e4e0528bb65feb648af64736f6c63430008110033",
  "linkReferences": {},
  "deployedLinkReferences": {}
}