{
  "_format": "hh-sol-artifact-1",
  "contractName": "Contract",
  "sourceName": "contracts/worldCoin.sol",
  "abi": [
    {
      "inputs": [
        {
          "internalType": "contract IWorldID",
          "name": "_worldId",
          "type": "address"
        },
        {
          "internalType": "string",
          "name": "_actionId",
          "type": "string"
        }
      ],
      "stateMutability": "nonpayable",
      "type": "constructor"
    },
    {
      "inputs": [],
      "name": "InvalidNullifier",
      "type": "error"
    },
    {
      "inputs": [
        {
          "internalType": "address",
          "name": "input",
          "type": "address"
        },
        {
          "internalType": "uint256",
          "name": "root",
          "type": "uint256"
        },
        {
          "internalType": "uint256",
          "name": "nullifierHash",
          "type": "uint256"
        },
        {
          "internalType": "uint256[8]",
          "name": "proof",
          "type": "uint256[8]"
        }
      ],
      "name": "verifyAndExecute",
      "outputs": [],
      "stateMutability": "nonpayable",
      "type": "function"
    }
  ],
  "bytecode": "0x60e0604052600160c0908152503480156200001957600080fd5b50604051620009373803806200093783398181016040528101906200003f9190620002fe565b8173ffffffffffffffffffffffffffffffffffffffff1660808173ffffffffffffffffffffffffffffffffffffffff1681525050620000aa816040516020016200008a9190620003b1565b604051602081830303815290604052620000b960201b620001ce1760201c565b60a08181525050505062000430565b6000600882604051602001620000d0919062000417565b6040516020818303038152906040528051906020012060001c901c9050919050565b6000604051905090565b600080fd5b600080fd5b600073ffffffffffffffffffffffffffffffffffffffff82169050919050565b6000620001338262000106565b9050919050565b6000620001478262000126565b9050919050565b62000159816200013a565b81146200016557600080fd5b50565b60008151905062000179816200014e565b92915050565b600080fd5b600080fd5b6000601f19601f8301169050919050565b7f4e487b7100000000000000000000000000000000000000000000000000000000600052604160045260246000fd5b620001d48262000189565b810181811067ffffffffffffffff82111715620001f657620001f56200019a565b5b80604052505050565b60006200020b620000f2565b9050620002198282620001c9565b919050565b600067ffffffffffffffff8211156200023c576200023b6200019a565b5b620002478262000189565b9050602081019050919050565b60005b838110156200027457808201518184015260208101905062000257565b60008484015250505050565b60006200029762000291846200021e565b620001ff565b905082815260208101848484011115620002b657620002b562000184565b5b620002c384828562000254565b509392505050565b600082601f830112620002e357620002e26200017f565b5b8151620002f584826020860162000280565b91505092915050565b60008060408385031215620003185762000317620000fc565b5b6000620003288582860162000168565b925050602083015167ffffffffffffffff8111156200034c576200034b62000101565b5b6200035a85828601620002cb565b9150509250929050565b600081519050919050565b600081905092915050565b6000620003878262000364565b6200039381856200036f565b9350620003a581856020860162000254565b80840191505092915050565b6000620003bf82846200037a565b915081905092915050565b600081519050919050565b600081905092915050565b6000620003ed82620003ca565b620003f98185620003d5565b93506200040b81856020860162000254565b80840191505092915050565b6000620004258284620003e0565b915081905092915050565b60805160a05160c0516104d96200045e600039600060e20152600061012c0152600060a501526104d96000f3fe608060405234801561001057600080fd5b506004361061002b5760003560e01c8063e9b7055314610030575b600080fd5b61004a600480360381019061004591906102c5565b61004c565b005b60008083815260200190815260200160002060009054906101000a900460ff16156100a3576040517f5d904cb200000000000000000000000000000000000000000000000000000000815260040160405180910390fd5b7f000000000000000000000000000000000000000000000000000000000000000073ffffffffffffffffffffffffffffffffffffffff16633bc778e3847f0000000000000000000000000000000000000000000000000000000000000000610129886040516020016101159190610375565b6040516020818303038152906040526101ce565b867f0000000000000000000000000000000000000000000000000000000000000000876040518763ffffffff1660e01b815260040161016d969594939291906103b9565b60006040518083038186803b15801561018557600080fd5b505afa158015610199573d6000803e3d6000fd5b50505050600160008084815260200190815260200160002060006101000a81548160ff02191690831515021790555050505050565b60006008826040516020016101e3919061048c565b6040516020818303038152906040528051906020012060001c901c9050919050565b600080fd5b600073ffffffffffffffffffffffffffffffffffffffff82169050919050565b60006102358261020a565b9050919050565b6102458161022a565b811461025057600080fd5b50565b6000813590506102628161023c565b92915050565b6000819050919050565b61027b81610268565b811461028657600080fd5b50565b60008135905061029881610272565b92915050565b600080fd5b6000819050826020600802820111156102bf576102be61029e565b5b92915050565b60008060008061016085870312156102e0576102df610205565b5b60006102ee87828801610253565b94505060206102ff87828801610289565b935050604061031087828801610289565b9250506060610321878288016102a3565b91505092959194509250565b60008160601b9050919050565b60006103458261032d565b9050919050565b60006103578261033a565b9050919050565b61036f61036a8261022a565b61034c565b82525050565b6000610381828461035e565b60148201915081905092915050565b61039981610268565b82525050565b82818337505050565b6103b5610100838361039f565b5050565b60006101a0820190506103cf6000830189610390565b6103dc6020830188610390565b6103e96040830187610390565b6103f66060830186610390565b6104036080830185610390565b61041060a08301846103a8565b979650505050505050565b600081519050919050565b600081905092915050565b60005b8381101561044f578082015181840152602081019050610434565b60008484015250505050565b60006104668261041b565b6104708185610426565b9350610480818560208601610431565b80840191505092915050565b6000610498828461045b565b91508190509291505056fea2646970667358221220a6ccb2d04925b76a25b1c5059595f2fd85dd8d723c9594c9ba9321f173efea4a64736f6c63430008110033",
  "linkReferences": {},
  "deployedLinkReferences": {}
}